{
  "contractName": "BConst",
  "abi": [
    {
      "inputs": [],
      "name": "BONE",
      "outputs": [
        {
          "internalType": "uint256",
          "name": "",
          "type": "uint256"
        }
      ],
      "stateMutability": "view",
      "type": "function"
    },
    {
      "inputs": [],
      "name": "BPOW_PRECISION",
      "outputs": [
        {
          "internalType": "uint256",
          "name": "",
          "type": "uint256"
        }
      ],
      "stateMutability": "view",
      "type": "function"
    },
    {
      "inputs": [],
      "name": "EXIT_FEE",
      "outputs": [
        {
          "internalType": "uint256",
          "name": "",
          "type": "uint256"
        }
      ],
      "stateMutability": "view",
      "type": "function"
    },
    {
      "inputs": [],
      "name": "INIT_POOL_SUPPLY",
      "outputs": [
        {
          "internalType": "uint256",
          "name": "",
          "type": "uint256"
        }
      ],
      "stateMutability": "view",
      "type": "function"
    },
    {
      "inputs": [],
      "name": "MAX_BOUND_TOKENS",
      "outputs": [
        {
          "internalType": "uint256",
          "name": "",
          "type": "uint256"
        }
      ],
      "stateMutability": "view",
      "type": "function"
    },
    {
      "inputs": [],
      "name": "MAX_BPOW_BASE",
      "outputs": [
        {
          "internalType": "uint256",
          "name": "",
          "type": "uint256"
        }
      ],
      "stateMutability": "view",
      "type": "function"
    },
    {
      "inputs": [],
      "name": "MAX_FEE",
      "outputs": [
        {
          "internalType": "uint256",
          "name": "",
          "type": "uint256"
        }
      ],
      "stateMutability": "view",
      "type": "function"
    },
    {
      "inputs": [],
      "name": "MAX_IN_RATIO",
      "outputs": [
        {
          "internalType": "uint256",
          "name": "",
          "type": "uint256"
        }
      ],
      "stateMutability": "view",
      "type": "function"
    },
    {
      "inputs": [],
      "name": "MAX_OUT_RATIO",
      "outputs": [
        {
          "internalType": "uint256",
          "name": "",
          "type": "uint256"
        }
      ],
      "stateMutability": "view",
      "type": "function"
    },
    {
      "inputs": [],
      "name": "MAX_TOTAL_WEIGHT",
      "outputs": [
        {
          "internalType": "uint256",
          "name": "",
          "type": "uint256"
        }
      ],
      "stateMutability": "view",
      "type": "function"
    },
    {
      "inputs": [],
      "name": "MAX_WEIGHT",
      "outputs": [
        {
          "internalType": "uint256",
          "name": "",
          "type": "uint256"
        }
      ],
      "stateMutability": "view",
      "type": "function"
    },
    {
      "inputs": [],
      "name": "MIN_BALANCE",
      "outputs": [
        {
          "internalType": "uint256",
          "name": "",
          "type": "uint256"
        }
      ],
      "stateMutability": "view",
      "type": "function"
    },
    {
      "inputs": [],
      "name": "MIN_BOUND_TOKENS",
      "outputs": [
        {
          "internalType": "uint256",
          "name": "",
          "type": "uint256"
        }
      ],
      "stateMutability": "view",
      "type": "function"
    },
    {
      "inputs": [],
      "name": "MIN_BPOW_BASE",
      "outputs": [
        {
          "internalType": "uint256",
          "name": "",
          "type": "uint256"
        }
      ],
      "stateMutability": "view",
      "type": "function"
    },
    {
      "inputs": [],
      "name": "MIN_FEE",
      "outputs": [
        {
          "internalType": "uint256",
          "name": "",
          "type": "uint256"
        }
      ],
      "stateMutability": "view",
      "type": "function"
    },
    {
      "inputs": [],
      "name": "MIN_WEIGHT",
      "outputs": [
        {
          "internalType": "uint256",
          "name": "",
          "type": "uint256"
        }
      ],
      "stateMutability": "view",
      "type": "function"
    },
    {
      "inputs": [],
      "name": "getColor",
      "outputs": [
        {
          "internalType": "bytes32",
          "name": "",
          "type": "bytes32"
        }
      ],
      "stateMutability": "pure",
      "type": "function"
    }
  ],
  "bytecode": "0x608060405234801561001057600080fd5b50610303806100206000396000f3fe608060405234801561001057600080fd5b50600436106100db5760003560e01c806309a3bbe4146100e0578063189d00ca146100fa578063218b53821461010257806376c7a3c714610111578063867378c5146101195780639381cd2b14610121578063992e2a92146101295780639a86139b14610131578063b0e0d13614610140578063b7b800a414610148578063ba019dab14610150578063bc063e1a14610158578063bc694ea214610160578063c36596a614610102578063c6580d1214610168578063e4a28a52146100e0578063ec09302114610170575b600080fd5b6100e8610178565b60405190815260200160405180910390f35b6100e861018e565b6100e8670de0b6b3a764000081565b6100e86101a5565b6100e86101ba565b6100e86101d1565b6100e86101e4565b6542524f4e5a4560d01b6100e8565b6100e8600881565b6100e8600281565b6100e8600181565b6100e8610202565b6100e8610215565b6100e8600081565b6100e8610234565b61018b670de0b6b3a76400006032610281565b81565b61018b6402540be400670de0b6b3a764000061025f565b61018b620f4240670de0b6b3a764000061025f565b61018b64e8d4a51000670de0b6b3a764000061025f565b61018b670de0b6b3a76400006064610281565b6101f76003670de0b6b3a764000061025f565b61018b906001610247565b61018b600a670de0b6b3a764000061025f565b600161022a670de0b6b3a76400006002610281565b61018b91906102a0565b61018b6002670de0b6b3a764000061025f565b6000821982111561025a5761025a6102b7565b500190565b60008261027c57634e487b7160e01b600052601260045260246000fd5b500490565b600081600019048311821515161561029b5761029b6102b7565b500290565b6000828210156102b2576102b26102b7565b500390565b634e487b7160e01b600052601160045260246000fdfea264697066735822122035fcfefa99882eff8b09745a59fd5c0d9e75921b3aab9b02a2aff0f8a62e962864736f6c63430008060033",
  "immutableReferences": {},
  "source": "// This program is free software: you can redistribute it and/or modify\n// it under the terms of the GNU General Public License as published by\n// the Free Software Foundation, either version 3 of the License, or\n// (at your option) any later version.\n\n// This program is distributed in the hope that it will be useful,\n// but WITHOUT ANY WARRANTY; without even the implied warranty of\n// MERCHANTABILITY or FITNESS FOR A PARTICULAR PURPOSE.  See the\n// GNU General Public License for more details.\n\n// SPDX-License-Identifier: GNU\n\n// You should have received a copy of the GNU General Public License\n// along with this program.  If not, see <http://www.gnu.org/licenses/>.\n\npragma solidity 0.8.6;\n\nimport \"./BColor.sol\";\n\ncontract BConst is BBronze {\n    uint public constant BONE              = 10**18;\n\n    uint public constant MIN_BOUND_TOKENS  = 2;\n    uint public constant MAX_BOUND_TOKENS  = 8;\n\n    uint public constant MIN_FEE           = BONE / 10**6;\n    uint public constant MAX_FEE           = BONE / 10;\n    uint public constant EXIT_FEE          = 0;\n\n    uint public constant MIN_WEIGHT        = BONE;\n    uint public constant MAX_WEIGHT        = BONE * 50;\n    uint public constant MAX_TOTAL_WEIGHT  = BONE * 50;\n    uint public constant MIN_BALANCE       = BONE / 10**12;\n\n    uint public constant INIT_POOL_SUPPLY  = BONE * 100;\n\n    uint public constant MIN_BPOW_BASE     = 1 wei;\n    uint public constant MAX_BPOW_BASE     = (2 * BONE) - 1 wei;\n    uint public constant BPOW_PRECISION    = BONE / 10**10;\n\n    uint public constant MAX_IN_RATIO      = BONE / 2;\n    uint public constant MAX_OUT_RATIO     = (BONE / 3) + 1 wei;\n}\n",
  "sourcePath": "/Users/david/Dev/cryptour/contracts/contracts/balancer/BConst.sol",
  "compiler": {
    "name": "solc",
    "version": "0.8.6+commit.11564f7e.Emscripten.clang"
  },
  "schemaVersion": "3.4.7",
  "updatedAt": "2022-04-25T14:12:43.855Z",
  "devdoc": {
    "kind": "dev",
    "methods": {},
    "version": 1
  },
  "userdoc": {
    "kind": "user",
    "methods": {},
    "version": 1
  }
}