{
  "contractName": "TBPoolJoinPool",
  "abi": [
    {
      "inputs": [],
      "name": "BONE",
      "outputs": [
        {
          "internalType": "uint256",
          "name": "",
          "type": "uint256"
        }
      ],
      "stateMutability": "view",
      "type": "function"
    },
    {
      "inputs": [],
      "name": "BPOW_PRECISION",
      "outputs": [
        {
          "internalType": "uint256",
          "name": "",
          "type": "uint256"
        }
      ],
      "stateMutability": "view",
      "type": "function"
    },
    {
      "inputs": [],
      "name": "EXIT_FEE",
      "outputs": [
        {
          "internalType": "uint256",
          "name": "",
          "type": "uint256"
        }
      ],
      "stateMutability": "view",
      "type": "function"
    },
    {
      "inputs": [],
      "name": "INIT_POOL_SUPPLY",
      "outputs": [
        {
          "internalType": "uint256",
          "name": "",
          "type": "uint256"
        }
      ],
      "stateMutability": "view",
      "type": "function"
    },
    {
      "inputs": [],
      "name": "MAX_BOUND_TOKENS",
      "outputs": [
        {
          "internalType": "uint256",
          "name": "",
          "type": "uint256"
        }
      ],
      "stateMutability": "view",
      "type": "function"
    },
    {
      "inputs": [],
      "name": "MAX_BPOW_BASE",
      "outputs": [
        {
          "internalType": "uint256",
          "name": "",
          "type": "uint256"
        }
      ],
      "stateMutability": "view",
      "type": "function"
    },
    {
      "inputs": [],
      "name": "MAX_FEE",
      "outputs": [
        {
          "internalType": "uint256",
          "name": "",
          "type": "uint256"
        }
      ],
      "stateMutability": "view",
      "type": "function"
    },
    {
      "inputs": [],
      "name": "MAX_IN_RATIO",
      "outputs": [
        {
          "internalType": "uint256",
          "name": "",
          "type": "uint256"
        }
      ],
      "stateMutability": "view",
      "type": "function"
    },
    {
      "inputs": [],
      "name": "MAX_OUT_RATIO",
      "outputs": [
        {
          "internalType": "uint256",
          "name": "",
          "type": "uint256"
        }
      ],
      "stateMutability": "view",
      "type": "function"
    },
    {
      "inputs": [],
      "name": "MAX_TOTAL_WEIGHT",
      "outputs": [
        {
          "internalType": "uint256",
          "name": "",
          "type": "uint256"
        }
      ],
      "stateMutability": "view",
      "type": "function"
    },
    {
      "inputs": [],
      "name": "MAX_WEIGHT",
      "outputs": [
        {
          "internalType": "uint256",
          "name": "",
          "type": "uint256"
        }
      ],
      "stateMutability": "view",
      "type": "function"
    },
    {
      "inputs": [],
      "name": "MIN_BALANCE",
      "outputs": [
        {
          "internalType": "uint256",
          "name": "",
          "type": "uint256"
        }
      ],
      "stateMutability": "view",
      "type": "function"
    },
    {
      "inputs": [],
      "name": "MIN_BOUND_TOKENS",
      "outputs": [
        {
          "internalType": "uint256",
          "name": "",
          "type": "uint256"
        }
      ],
      "stateMutability": "view",
      "type": "function"
    },
    {
      "inputs": [],
      "name": "MIN_BPOW_BASE",
      "outputs": [
        {
          "internalType": "uint256",
          "name": "",
          "type": "uint256"
        }
      ],
      "stateMutability": "view",
      "type": "function"
    },
    {
      "inputs": [],
      "name": "MIN_FEE",
      "outputs": [
        {
          "internalType": "uint256",
          "name": "",
          "type": "uint256"
        }
      ],
      "stateMutability": "view",
      "type": "function"
    },
    {
      "inputs": [],
      "name": "MIN_WEIGHT",
      "outputs": [
        {
          "internalType": "uint256",
          "name": "",
          "type": "uint256"
        }
      ],
      "stateMutability": "view",
      "type": "function"
    },
    {
      "inputs": [],
      "name": "echidna_no_bug_found",
      "outputs": [
        {
          "internalType": "bool",
          "name": "",
          "type": "bool"
        }
      ],
      "stateMutability": "view",
      "type": "function"
    },
    {
      "inputs": [],
      "name": "getColor",
      "outputs": [
        {
          "internalType": "bytes32",
          "name": "",
          "type": "bytes32"
        }
      ],
      "stateMutability": "pure",
      "type": "function"
    },
    {
      "inputs": [
        {
          "internalType": "uint256",
          "name": "poolAmountOut",
          "type": "uint256"
        },
        {
          "internalType": "uint256",
          "name": "poolTotal",
          "type": "uint256"
        },
        {
          "internalType": "uint256",
          "name": "_records_t_balance",
          "type": "uint256"
        }
      ],
      "name": "joinPool",
      "outputs": [],
      "stateMutability": "nonpayable",
      "type": "function"
    }
  ],
  "bytecode": "0x60806040526000805460ff1916600117905534801561001d57600080fd5b506106188061002d6000396000f3fe608060405234801561001057600080fd5b50600436106100f15760003560e01c806309a3bbe4146100f65780631819aa4214610111578063189d00ca1461012e578063218b5382146101365780632e6884451461014557806376c7a3c71461015a578063867378c5146101625780639381cd2b1461016a578063992e2a92146101725780639a86139b1461017a578063b0e0d13614610189578063b7b800a414610191578063ba019dab14610199578063bc063e1a146101a1578063bc694ea2146101a9578063c36596a614610136578063c6580d12146101b1578063e4a28a52146100f6578063ec093021146101b9575b600080fd5b6100fe6101c1565b6040519081526020015b60405180910390f35b60005461011e9060ff1681565b6040519015158152602001610108565b6100fe6101d7565b6100fe670de0b6b3a764000081565b6101586101533660046104dc565b6101ee565b005b6100fe6102c9565b6100fe6102de565b6100fe6102f5565b6100fe610308565b6542524f4e5a4560d01b6100fe565b6100fe600881565b6100fe600281565b6100fe600181565b6100fe610326565b6100fe610339565b6100fe600081565b6100fe610358565b6101d4670de0b6b3a76400006032610596565b81565b6101d46402540be400670de0b6b3a7640000610574565b68056bc75e2d6310000082111561020457600080fd5b670de0b6b3a764000082101561021957600080fd5b678ac7230489e8000081111561022e57600080fd5b620f424081101561023e57600080fd5b600061024a848461036b565b9050806102905760405162461bcd60e51b815260206004820152600f60248201526e08aa4a4be9a82a890be82a0a0a49eb608b1b60448201526064015b60405180910390fd5b81600061029d8383610447565b9050600086116102ac57600080fd5b80156102b757600080fd5b50506000805460ff1916905550505050565b6101d4620f4240670de0b6b3a7640000610574565b6101d464e8d4a51000670de0b6b3a7640000610574565b6101d4670de0b6b3a76400006064610596565b61031b6003670de0b6b3a7640000610574565b6101d490600161055c565b6101d4600a670de0b6b3a7640000610574565b600161034e670de0b6b3a76400006002610596565b6101d491906105b5565b6101d46002670de0b6b3a7640000610574565b6000816103a95760405162461bcd60e51b815260206004820152600c60248201526b4552525f4449565f5a45524f60a01b6044820152606401610287565b60006103bd670de0b6b3a764000085610596565b90508315806103dc5750670de0b6b3a76400006103da8583610574565b145b6103f85760405162461bcd60e51b815260040161028790610508565b6000610405600285610574565b61040f908361055c565b9050818110156104315760405162461bcd60e51b815260040161028790610508565b600061043d8583610574565b9695505050505050565b6000806104548385610596565b905083158061046b5750826104698583610574565b145b6104875760405162461bcd60e51b815260040161028790610532565b600061049c6002670de0b6b3a7640000610574565b6104a6908361055c565b9050818110156104c85760405162461bcd60e51b815260040161028790610532565b600061043d670de0b6b3a764000083610574565b6000806000606084860312156104f157600080fd5b505081359360208301359350604090920135919050565b60208082526010908201526f11549497d1125597d25395115493905360821b604082015260600190565b60208082526010908201526f4552525f4d554c5f4f564552464c4f5760801b604082015260600190565b6000821982111561056f5761056f6105cc565b500190565b60008261059157634e487b7160e01b600052601260045260246000fd5b500490565b60008160001904831182151516156105b0576105b06105cc565b500290565b6000828210156105c7576105c76105cc565b500390565b634e487b7160e01b600052601160045260246000fdfea2646970667358221220a4c6e95923d16ba027ed4f69fe4b666e61807e043ba8054aae49b827ef11ac2e64736f6c63430008060033",
  "immutableReferences": {},
  "source": "// SPDX-License-Identifier: GNU\n\nimport \"../../BNum.sol\";\n\npragma solidity 0.8.6;\n\ncontract TBPoolJoinPool is BNum {\n\n    bool public echidna_no_bug_found = true;\n\n    // joinPool models the BPool.joinPool behavior for one token\n    // A bug is found if poolAmountOut is greater than 0\n    // And tokenAmountIn is 0\n    function joinPool(uint poolAmountOut, uint poolTotal, uint _records_t_balance)\n        public\n    {\n        // We constraint poolTotal and _records_t_balance\n        // To have \"realistic\" values\n        require(poolTotal <= 100 ether);\n        require(poolTotal >= 1 ether);\n        require(_records_t_balance <= 10 ether);\n        require(_records_t_balance >= 10**6);\n\n        uint ratio = bdiv(poolAmountOut, poolTotal);\n        require(ratio != 0, \"ERR_MATH_APPROX\");\n\n        uint bal = _records_t_balance;\n        uint tokenAmountIn = bmul(ratio, bal);\n\n        require(poolAmountOut > 0);\n        require(tokenAmountIn == 0);\n\n        echidna_no_bug_found = false;\n    }\n\n}",
  "sourcePath": "/Users/david/Dev/cryptour/contracts/contracts/balancer/test/echidna/TBPoolJoinPool.sol",
  "compiler": {
    "name": "solc",
    "version": "0.8.6+commit.11564f7e.Emscripten.clang"
  },
  "schemaVersion": "3.4.7",
  "updatedAt": "2022-04-25T14:12:43.887Z",
  "devdoc": {
    "kind": "dev",
    "methods": {},
    "version": 1
  },
  "userdoc": {
    "kind": "user",
    "methods": {},
    "version": 1
  }
}