{
  "contractName": "TBPoolJoinExit",
  "abi": [
    {
      "inputs": [],
      "name": "BONE",
      "outputs": [
        {
          "internalType": "uint256",
          "name": "",
          "type": "uint256"
        }
      ],
      "stateMutability": "view",
      "type": "function"
    },
    {
      "inputs": [],
      "name": "BPOW_PRECISION",
      "outputs": [
        {
          "internalType": "uint256",
          "name": "",
          "type": "uint256"
        }
      ],
      "stateMutability": "view",
      "type": "function"
    },
    {
      "inputs": [],
      "name": "EXIT_FEE",
      "outputs": [
        {
          "internalType": "uint256",
          "name": "",
          "type": "uint256"
        }
      ],
      "stateMutability": "view",
      "type": "function"
    },
    {
      "inputs": [],
      "name": "INIT_POOL_SUPPLY",
      "outputs": [
        {
          "internalType": "uint256",
          "name": "",
          "type": "uint256"
        }
      ],
      "stateMutability": "view",
      "type": "function"
    },
    {
      "inputs": [],
      "name": "MAX_BOUND_TOKENS",
      "outputs": [
        {
          "internalType": "uint256",
          "name": "",
          "type": "uint256"
        }
      ],
      "stateMutability": "view",
      "type": "function"
    },
    {
      "inputs": [],
      "name": "MAX_BPOW_BASE",
      "outputs": [
        {
          "internalType": "uint256",
          "name": "",
          "type": "uint256"
        }
      ],
      "stateMutability": "view",
      "type": "function"
    },
    {
      "inputs": [],
      "name": "MAX_FEE",
      "outputs": [
        {
          "internalType": "uint256",
          "name": "",
          "type": "uint256"
        }
      ],
      "stateMutability": "view",
      "type": "function"
    },
    {
      "inputs": [],
      "name": "MAX_IN_RATIO",
      "outputs": [
        {
          "internalType": "uint256",
          "name": "",
          "type": "uint256"
        }
      ],
      "stateMutability": "view",
      "type": "function"
    },
    {
      "inputs": [],
      "name": "MAX_OUT_RATIO",
      "outputs": [
        {
          "internalType": "uint256",
          "name": "",
          "type": "uint256"
        }
      ],
      "stateMutability": "view",
      "type": "function"
    },
    {
      "inputs": [],
      "name": "MAX_TOTAL_WEIGHT",
      "outputs": [
        {
          "internalType": "uint256",
          "name": "",
          "type": "uint256"
        }
      ],
      "stateMutability": "view",
      "type": "function"
    },
    {
      "inputs": [],
      "name": "MAX_WEIGHT",
      "outputs": [
        {
          "internalType": "uint256",
          "name": "",
          "type": "uint256"
        }
      ],
      "stateMutability": "view",
      "type": "function"
    },
    {
      "inputs": [],
      "name": "MIN_BALANCE",
      "outputs": [
        {
          "internalType": "uint256",
          "name": "",
          "type": "uint256"
        }
      ],
      "stateMutability": "view",
      "type": "function"
    },
    {
      "inputs": [],
      "name": "MIN_BOUND_TOKENS",
      "outputs": [
        {
          "internalType": "uint256",
          "name": "",
          "type": "uint256"
        }
      ],
      "stateMutability": "view",
      "type": "function"
    },
    {
      "inputs": [],
      "name": "MIN_BPOW_BASE",
      "outputs": [
        {
          "internalType": "uint256",
          "name": "",
          "type": "uint256"
        }
      ],
      "stateMutability": "view",
      "type": "function"
    },
    {
      "inputs": [],
      "name": "MIN_FEE",
      "outputs": [
        {
          "internalType": "uint256",
          "name": "",
          "type": "uint256"
        }
      ],
      "stateMutability": "view",
      "type": "function"
    },
    {
      "inputs": [],
      "name": "MIN_WEIGHT",
      "outputs": [
        {
          "internalType": "uint256",
          "name": "",
          "type": "uint256"
        }
      ],
      "stateMutability": "view",
      "type": "function"
    },
    {
      "inputs": [],
      "name": "echidna_no_bug_found",
      "outputs": [
        {
          "internalType": "bool",
          "name": "",
          "type": "bool"
        }
      ],
      "stateMutability": "view",
      "type": "function"
    },
    {
      "inputs": [],
      "name": "getColor",
      "outputs": [
        {
          "internalType": "bytes32",
          "name": "",
          "type": "bytes32"
        }
      ],
      "stateMutability": "pure",
      "type": "function"
    },
    {
      "inputs": [
        {
          "internalType": "uint256",
          "name": "poolAmountOut",
          "type": "uint256"
        },
        {
          "internalType": "uint256",
          "name": "poolAmountIn",
          "type": "uint256"
        },
        {
          "internalType": "uint256",
          "name": "poolTotal",
          "type": "uint256"
        },
        {
          "internalType": "uint256",
          "name": "_records_t_balance",
          "type": "uint256"
        }
      ],
      "name": "joinAndExitPool",
      "outputs": [],
      "stateMutability": "nonpayable",
      "type": "function"
    }
  ],
  "bytecode": "0x60806040526000805460ff1916600117905534801561001d57600080fd5b506107e08061002d6000396000f3fe608060405234801561001057600080fd5b50600436106100f15760003560e01c806309a3bbe4146100f65780631819aa4214610111578063189d00ca1461012e578063218b5382146101365780632370e3a41461014557806376c7a3c71461015a578063867378c5146101625780639381cd2b1461016a578063992e2a92146101725780639a86139b1461017a578063b0e0d13614610189578063b7b800a414610191578063ba019dab14610199578063bc063e1a146101a1578063bc694ea2146101a9578063c36596a614610136578063c6580d12146101b1578063e4a28a52146100f6578063ec093021146101b9575b600080fd5b6100fe6101c1565b6040519081526020015b60405180910390f35b60005461011e9060ff1681565b6040519015158152602001610108565b6100fe6101d7565b6100fe670de0b6b3a764000081565b610158610153366004610675565b6101ee565b005b6100fe6102c5565b6100fe6102da565b6100fe6102f1565b6100fe610304565b6542524f4e5a4560d01b6100fe565b6100fe600881565b6100fe600281565b6100fe600181565b6100fe610322565b6100fe610335565b6100fe600081565b6100fe610354565b6101d4670de0b6b3a7640000603261075e565b81565b6101d46402540be400670de0b6b3a764000061073c565b60006101fb858484610367565b905068056bc75e2d6310000083111561021357600080fd5b670de0b6b3a764000083101561022857600080fd5b678ac7230489e8000082111561023d57600080fd5b620f424082101561024d57600080fd5b61025783866103b4565b925061026382826103b4565b91506000811161027257600080fd5b8383101561027f57600080fd5b600061028c85858561040d565b90508083101561029b57600080fd5b8486116102a757600080fd5b8181146102b357600080fd5b50506000805460ff1916905550505050565b6101d4620f4240670de0b6b3a764000061073c565b6101d464e8d4a51000670de0b6b3a764000061073c565b6101d4670de0b6b3a7640000606461075e565b6103176003670de0b6b3a764000061073c565b6101d4906001610724565b6101d4600a670de0b6b3a764000061073c565b600161034a670de0b6b3a7640000600261075e565b6101d4919061077d565b6101d46002670de0b6b3a764000061073c565b6000806103748585610470565b90508061039c5760405162461bcd60e51b8152600401610393906106a7565b60405180910390fd5b8260006103a9838361054c565b979650505050505050565b6000806103c18385610724565b9050838110156104065760405162461bcd60e51b815260206004820152601060248201526f4552525f4144445f4f564552464c4f5760801b6044820152606401610393565b9392505050565b60008061041b85600061054c565b9050600061042986836105e1565b905060006104378287610470565b9050806104565760405162461bcd60e51b8152600401610393906106a7565b846000610463838361054c565b9998505050505050505050565b6000816104ae5760405162461bcd60e51b815260206004820152600c60248201526b4552525f4449565f5a45524f60a01b6044820152606401610393565b60006104c2670de0b6b3a76400008561075e565b90508315806104e15750670de0b6b3a76400006104df858361073c565b145b6104fd5760405162461bcd60e51b8152600401610393906106d0565b600061050a60028561073c565b6105149083610724565b9050818110156105365760405162461bcd60e51b8152600401610393906106d0565b6000610542858361073c565b9695505050505050565b600080610559838561075e565b905083158061057057508261056e858361073c565b145b61058c5760405162461bcd60e51b8152600401610393906106fa565b60006105a16002670de0b6b3a764000061073c565b6105ab9083610724565b9050818110156105cd5760405162461bcd60e51b8152600401610393906106fa565b6000610542670de0b6b3a76400008361073c565b60008060006105f0858561063e565b9150915080156106365760405162461bcd60e51b81526020600482015260116024820152704552525f5355425f554e444552464c4f5760781b6044820152606401610393565b509392505050565b60008082841061065d57610652838561077d565b60009150915061066e565b610667848461077d565b6001915091505b9250929050565b6000806000806080858703121561068b57600080fd5b5050823594602084013594506040840135936060013592509050565b6020808252600f908201526e08aa4a4be9a82a890be82a0a0a49eb608b1b604082015260600190565b60208082526010908201526f11549497d1125597d25395115493905360821b604082015260600190565b60208082526010908201526f4552525f4d554c5f4f564552464c4f5760801b604082015260600190565b6000821982111561073757610737610794565b500190565b60008261075957634e487b7160e01b600052601260045260246000fd5b500490565b600081600019048311821515161561077857610778610794565b500290565b60008282101561078f5761078f610794565b500390565b634e487b7160e01b600052601160045260246000fdfea26469706673582212200a2519ed8031d14b9222a8f8067d36a2130c5aec943e237cbf2fb136828ab8b664736f6c63430008060033",
  "immutableReferences": {},
  "source": "// SPDX-License-Identifier: GNU\n\nimport \"../../BNum.sol\";\n\npragma solidity 0.8.6;\n\n//  This test is similar to TBPoolJoin but with an exit fee\ncontract TBPoolJoinExit is BNum {\n\n    bool public echidna_no_bug_found = true;\n\n    // joinPool models the BPool.joinPool behavior for one token\n    function joinPool(uint poolAmountOut, uint poolTotal, uint _records_t_balance)\n        internal pure returns(uint)\n    {\n        uint ratio = bdiv(poolAmountOut, poolTotal);\n        require(ratio != 0, \"ERR_MATH_APPROX\");\n\n        uint bal = _records_t_balance;\n        uint tokenAmountIn = bmul(ratio, bal);\n\n        return tokenAmountIn;\n    }\n\n    // exitPool models the BPool.exitPool behavior for one token\n    function exitPool(uint poolAmountIn, uint poolTotal, uint _records_t_balance)\n        internal pure returns(uint)\n    {\n        uint exitFee = bmul(poolAmountIn, EXIT_FEE);\n        uint pAiAfterExitFee = bsub(poolAmountIn, exitFee);\n        uint ratio = bdiv(pAiAfterExitFee, poolTotal);\n        require(ratio != 0, \"ERR_MATH_APPROX\");\n\n        uint bal = _records_t_balance;\n        uint tokenAmountOut = bmul(ratio, bal);\n\n        return tokenAmountOut;\n    }\n\n\n    // This function model an attacker calling joinPool - exitPool and taking advantage of potential rounding\n    // issues to generate free pool token\n    function joinAndExitPool(uint poolAmountOut, uint poolAmountIn, uint poolTotal, uint _records_t_balance) public {\n        uint tokenAmountIn = joinPool(poolAmountOut, poolTotal, _records_t_balance);\n\n        // We constraint poolTotal and _records_t_balance\n        // To have \"realistic\" values\n        require(poolTotal <= 100 ether);\n        require(poolTotal >= 1 ether);\n        require(_records_t_balance <= 10 ether);\n        require(_records_t_balance >= 10**6);\n\n        poolTotal = badd(poolTotal, poolAmountOut);\n        _records_t_balance = badd(_records_t_balance, tokenAmountIn);\n\n        require(tokenAmountIn > 0); // prevent triggering the free token generation from joinPool \n\n        require(poolTotal >= poolAmountIn);\n        uint tokenAmountOut = exitPool(poolAmountIn, poolTotal, _records_t_balance);\n        require(_records_t_balance >= tokenAmountOut);\n\n        // We try to generate free pool share \n        require(poolAmountOut > poolAmountIn); \n        require(tokenAmountOut == tokenAmountIn); \n        echidna_no_bug_found = false;\n    }\n\n}",
  "sourcePath": "/Users/david/Dev/cryptour/contracts/contracts/balancer/test/echidna/TBPoolJoinExitPool.sol",
  "compiler": {
    "name": "solc",
    "version": "0.8.6+commit.11564f7e.Emscripten.clang"
  },
  "schemaVersion": "3.4.7",
  "updatedAt": "2022-04-25T14:12:43.884Z",
  "devdoc": {
    "kind": "dev",
    "methods": {},
    "version": 1
  },
  "userdoc": {
    "kind": "user",
    "methods": {},
    "version": 1
  }
}