{
  "contractName": "TMath",
  "abi": [
    {
      "inputs": [],
      "name": "BONE",
      "outputs": [
        {
          "internalType": "uint256",
          "name": "",
          "type": "uint256"
        }
      ],
      "stateMutability": "view",
      "type": "function"
    },
    {
      "inputs": [],
      "name": "BPOW_PRECISION",
      "outputs": [
        {
          "internalType": "uint256",
          "name": "",
          "type": "uint256"
        }
      ],
      "stateMutability": "view",
      "type": "function"
    },
    {
      "inputs": [],
      "name": "EXIT_FEE",
      "outputs": [
        {
          "internalType": "uint256",
          "name": "",
          "type": "uint256"
        }
      ],
      "stateMutability": "view",
      "type": "function"
    },
    {
      "inputs": [],
      "name": "INIT_POOL_SUPPLY",
      "outputs": [
        {
          "internalType": "uint256",
          "name": "",
          "type": "uint256"
        }
      ],
      "stateMutability": "view",
      "type": "function"
    },
    {
      "inputs": [],
      "name": "MAX_BOUND_TOKENS",
      "outputs": [
        {
          "internalType": "uint256",
          "name": "",
          "type": "uint256"
        }
      ],
      "stateMutability": "view",
      "type": "function"
    },
    {
      "inputs": [],
      "name": "MAX_BPOW_BASE",
      "outputs": [
        {
          "internalType": "uint256",
          "name": "",
          "type": "uint256"
        }
      ],
      "stateMutability": "view",
      "type": "function"
    },
    {
      "inputs": [],
      "name": "MAX_FEE",
      "outputs": [
        {
          "internalType": "uint256",
          "name": "",
          "type": "uint256"
        }
      ],
      "stateMutability": "view",
      "type": "function"
    },
    {
      "inputs": [],
      "name": "MAX_IN_RATIO",
      "outputs": [
        {
          "internalType": "uint256",
          "name": "",
          "type": "uint256"
        }
      ],
      "stateMutability": "view",
      "type": "function"
    },
    {
      "inputs": [],
      "name": "MAX_OUT_RATIO",
      "outputs": [
        {
          "internalType": "uint256",
          "name": "",
          "type": "uint256"
        }
      ],
      "stateMutability": "view",
      "type": "function"
    },
    {
      "inputs": [],
      "name": "MAX_TOTAL_WEIGHT",
      "outputs": [
        {
          "internalType": "uint256",
          "name": "",
          "type": "uint256"
        }
      ],
      "stateMutability": "view",
      "type": "function"
    },
    {
      "inputs": [],
      "name": "MAX_WEIGHT",
      "outputs": [
        {
          "internalType": "uint256",
          "name": "",
          "type": "uint256"
        }
      ],
      "stateMutability": "view",
      "type": "function"
    },
    {
      "inputs": [],
      "name": "MIN_BALANCE",
      "outputs": [
        {
          "internalType": "uint256",
          "name": "",
          "type": "uint256"
        }
      ],
      "stateMutability": "view",
      "type": "function"
    },
    {
      "inputs": [],
      "name": "MIN_BOUND_TOKENS",
      "outputs": [
        {
          "internalType": "uint256",
          "name": "",
          "type": "uint256"
        }
      ],
      "stateMutability": "view",
      "type": "function"
    },
    {
      "inputs": [],
      "name": "MIN_BPOW_BASE",
      "outputs": [
        {
          "internalType": "uint256",
          "name": "",
          "type": "uint256"
        }
      ],
      "stateMutability": "view",
      "type": "function"
    },
    {
      "inputs": [],
      "name": "MIN_FEE",
      "outputs": [
        {
          "internalType": "uint256",
          "name": "",
          "type": "uint256"
        }
      ],
      "stateMutability": "view",
      "type": "function"
    },
    {
      "inputs": [],
      "name": "MIN_WEIGHT",
      "outputs": [
        {
          "internalType": "uint256",
          "name": "",
          "type": "uint256"
        }
      ],
      "stateMutability": "view",
      "type": "function"
    },
    {
      "inputs": [
        {
          "internalType": "uint256",
          "name": "tokenBalanceIn",
          "type": "uint256"
        },
        {
          "internalType": "uint256",
          "name": "tokenWeightIn",
          "type": "uint256"
        },
        {
          "internalType": "uint256",
          "name": "tokenBalanceOut",
          "type": "uint256"
        },
        {
          "internalType": "uint256",
          "name": "tokenWeightOut",
          "type": "uint256"
        },
        {
          "internalType": "uint256",
          "name": "tokenAmountOut",
          "type": "uint256"
        },
        {
          "internalType": "uint256",
          "name": "swapFee",
          "type": "uint256"
        }
      ],
      "name": "calcInGivenOut",
      "outputs": [
        {
          "internalType": "uint256",
          "name": "tokenAmountIn",
          "type": "uint256"
        }
      ],
      "stateMutability": "pure",
      "type": "function"
    },
    {
      "inputs": [
        {
          "internalType": "uint256",
          "name": "tokenBalanceIn",
          "type": "uint256"
        },
        {
          "internalType": "uint256",
          "name": "tokenWeightIn",
          "type": "uint256"
        },
        {
          "internalType": "uint256",
          "name": "tokenBalanceOut",
          "type": "uint256"
        },
        {
          "internalType": "uint256",
          "name": "tokenWeightOut",
          "type": "uint256"
        },
        {
          "internalType": "uint256",
          "name": "tokenAmountIn",
          "type": "uint256"
        },
        {
          "internalType": "uint256",
          "name": "swapFee",
          "type": "uint256"
        }
      ],
      "name": "calcOutGivenIn",
      "outputs": [
        {
          "internalType": "uint256",
          "name": "tokenAmountOut",
          "type": "uint256"
        }
      ],
      "stateMutability": "pure",
      "type": "function"
    },
    {
      "inputs": [
        {
          "internalType": "uint256",
          "name": "tokenBalanceOut",
          "type": "uint256"
        },
        {
          "internalType": "uint256",
          "name": "tokenWeightOut",
          "type": "uint256"
        },
        {
          "internalType": "uint256",
          "name": "poolSupply",
          "type": "uint256"
        },
        {
          "internalType": "uint256",
          "name": "totalWeight",
          "type": "uint256"
        },
        {
          "internalType": "uint256",
          "name": "tokenAmountOut",
          "type": "uint256"
        },
        {
          "internalType": "uint256",
          "name": "swapFee",
          "type": "uint256"
        }
      ],
      "name": "calcPoolInGivenSingleOut",
      "outputs": [
        {
          "internalType": "uint256",
          "name": "poolAmountIn",
          "type": "uint256"
        }
      ],
      "stateMutability": "pure",
      "type": "function"
    },
    {
      "inputs": [
        {
          "internalType": "uint256",
          "name": "tokenBalanceIn",
          "type": "uint256"
        },
        {
          "internalType": "uint256",
          "name": "tokenWeightIn",
          "type": "uint256"
        },
        {
          "internalType": "uint256",
          "name": "poolSupply",
          "type": "uint256"
        },
        {
          "internalType": "uint256",
          "name": "totalWeight",
          "type": "uint256"
        },
        {
          "internalType": "uint256",
          "name": "tokenAmountIn",
          "type": "uint256"
        },
        {
          "internalType": "uint256",
          "name": "swapFee",
          "type": "uint256"
        }
      ],
      "name": "calcPoolOutGivenSingleIn",
      "outputs": [
        {
          "internalType": "uint256",
          "name": "poolAmountOut",
          "type": "uint256"
        }
      ],
      "stateMutability": "pure",
      "type": "function"
    },
    {
      "inputs": [
        {
          "internalType": "uint256",
          "name": "tokenBalanceIn",
          "type": "uint256"
        },
        {
          "internalType": "uint256",
          "name": "tokenWeightIn",
          "type": "uint256"
        },
        {
          "internalType": "uint256",
          "name": "poolSupply",
          "type": "uint256"
        },
        {
          "internalType": "uint256",
          "name": "totalWeight",
          "type": "uint256"
        },
        {
          "internalType": "uint256",
          "name": "poolAmountOut",
          "type": "uint256"
        },
        {
          "internalType": "uint256",
          "name": "swapFee",
          "type": "uint256"
        }
      ],
      "name": "calcSingleInGivenPoolOut",
      "outputs": [
        {
          "internalType": "uint256",
          "name": "tokenAmountIn",
          "type": "uint256"
        }
      ],
      "stateMutability": "pure",
      "type": "function"
    },
    {
      "inputs": [
        {
          "internalType": "uint256",
          "name": "tokenBalanceOut",
          "type": "uint256"
        },
        {
          "internalType": "uint256",
          "name": "tokenWeightOut",
          "type": "uint256"
        },
        {
          "internalType": "uint256",
          "name": "poolSupply",
          "type": "uint256"
        },
        {
          "internalType": "uint256",
          "name": "totalWeight",
          "type": "uint256"
        },
        {
          "internalType": "uint256",
          "name": "poolAmountIn",
          "type": "uint256"
        },
        {
          "internalType": "uint256",
          "name": "swapFee",
          "type": "uint256"
        }
      ],
      "name": "calcSingleOutGivenPoolIn",
      "outputs": [
        {
          "internalType": "uint256",
          "name": "tokenAmountOut",
          "type": "uint256"
        }
      ],
      "stateMutability": "pure",
      "type": "function"
    },
    {
      "inputs": [
        {
          "internalType": "uint256",
          "name": "tokenBalanceIn",
          "type": "uint256"
        },
        {
          "internalType": "uint256",
          "name": "tokenWeightIn",
          "type": "uint256"
        },
        {
          "internalType": "uint256",
          "name": "tokenBalanceOut",
          "type": "uint256"
        },
        {
          "internalType": "uint256",
          "name": "tokenWeightOut",
          "type": "uint256"
        },
        {
          "internalType": "uint256",
          "name": "swapFee",
          "type": "uint256"
        }
      ],
      "name": "calcSpotPrice",
      "outputs": [
        {
          "internalType": "uint256",
          "name": "spotPrice",
          "type": "uint256"
        }
      ],
      "stateMutability": "pure",
      "type": "function"
    },
    {
      "inputs": [],
      "name": "getColor",
      "outputs": [
        {
          "internalType": "bytes32",
          "name": "",
          "type": "bytes32"
        }
      ],
      "stateMutability": "pure",
      "type": "function"
    },
    {
      "inputs": [
        {
          "internalType": "uint256",
          "name": "a",
          "type": "uint256"
        }
      ],
      "name": "calc_btoi",
      "outputs": [
        {
          "internalType": "uint256",
          "name": "",
          "type": "uint256"
        }
      ],
      "stateMutability": "pure",
      "type": "function"
    },
    {
      "inputs": [
        {
          "internalType": "uint256",
          "name": "a",
          "type": "uint256"
        }
      ],
      "name": "calc_bfloor",
      "outputs": [
        {
          "internalType": "uint256",
          "name": "",
          "type": "uint256"
        }
      ],
      "stateMutability": "pure",
      "type": "function"
    },
    {
      "inputs": [
        {
          "internalType": "uint256",
          "name": "a",
          "type": "uint256"
        },
        {
          "internalType": "uint256",
          "name": "b",
          "type": "uint256"
        }
      ],
      "name": "calc_badd",
      "outputs": [
        {
          "internalType": "uint256",
          "name": "",
          "type": "uint256"
        }
      ],
      "stateMutability": "pure",
      "type": "function"
    },
    {
      "inputs": [
        {
          "internalType": "uint256",
          "name": "a",
          "type": "uint256"
        },
        {
          "internalType": "uint256",
          "name": "b",
          "type": "uint256"
        }
      ],
      "name": "calc_bsub",
      "outputs": [
        {
          "internalType": "uint256",
          "name": "",
          "type": "uint256"
        }
      ],
      "stateMutability": "pure",
      "type": "function"
    },
    {
      "inputs": [
        {
          "internalType": "uint256",
          "name": "a",
          "type": "uint256"
        },
        {
          "internalType": "uint256",
          "name": "b",
          "type": "uint256"
        }
      ],
      "name": "calc_bsubSign",
      "outputs": [
        {
          "internalType": "uint256",
          "name": "",
          "type": "uint256"
        },
        {
          "internalType": "bool",
          "name": "",
          "type": "bool"
        }
      ],
      "stateMutability": "pure",
      "type": "function"
    },
    {
      "inputs": [
        {
          "internalType": "uint256",
          "name": "a",
          "type": "uint256"
        },
        {
          "internalType": "uint256",
          "name": "b",
          "type": "uint256"
        }
      ],
      "name": "calc_bmul",
      "outputs": [
        {
          "internalType": "uint256",
          "name": "",
          "type": "uint256"
        }
      ],
      "stateMutability": "pure",
      "type": "function"
    },
    {
      "inputs": [
        {
          "internalType": "uint256",
          "name": "a",
          "type": "uint256"
        },
        {
          "internalType": "uint256",
          "name": "b",
          "type": "uint256"
        }
      ],
      "name": "calc_bdiv",
      "outputs": [
        {
          "internalType": "uint256",
          "name": "",
          "type": "uint256"
        }
      ],
      "stateMutability": "pure",
      "type": "function"
    },
    {
      "inputs": [
        {
          "internalType": "uint256",
          "name": "a",
          "type": "uint256"
        },
        {
          "internalType": "uint256",
          "name": "n",
          "type": "uint256"
        }
      ],
      "name": "calc_bpowi",
      "outputs": [
        {
          "internalType": "uint256",
          "name": "",
          "type": "uint256"
        }
      ],
      "stateMutability": "pure",
      "type": "function"
    },
    {
      "inputs": [
        {
          "internalType": "uint256",
          "name": "base",
          "type": "uint256"
        },
        {
          "internalType": "uint256",
          "name": "exp",
          "type": "uint256"
        }
      ],
      "name": "calc_bpow",
      "outputs": [
        {
          "internalType": "uint256",
          "name": "",
          "type": "uint256"
        }
      ],
      "stateMutability": "pure",
      "type": "function"
    },
    {
      "inputs": [
        {
          "internalType": "uint256",
          "name": "base",
          "type": "uint256"
        },
        {
          "internalType": "uint256",
          "name": "exp",
          "type": "uint256"
        },
        {
          "internalType": "uint256",
          "name": "precision",
          "type": "uint256"
        }
      ],
      "name": "calc_bpowApprox",
      "outputs": [
        {
          "internalType": "uint256",
          "name": "",
          "type": "uint256"
        }
      ],
      "stateMutability": "pure",
      "type": "function"
    }
  ],
  "bytecode": "0x608060405234801561001057600080fd5b50611077806100206000396000f3fe608060405234801561001057600080fd5b50600436106101a65760003560e01c8063b0e0d136116100ea578063b0e0d136146102b7578063b58d3e70146102bf578063b65fcf40146102d2578063b7b800a4146102fa578063ba019dab14610302578063ba9530a61461030a578063bc063e1a1461031d578063bc694ea214610325578063c36596a6146101f4578063c6580d121461032d578063c6b3199d14610335578063cd094b1414610348578063e4a28a52146101ab578063ec0930211461035b578063f5f5b14814610363578063f760324b14610376578063f8d6aed41461038957600080fd5b806309a3bbe4146101ab578063189d00ca146101c65780631bcaf56f146101ce5780631fdee407146101e1578063218b5382146101f457806331124372146102035780635c1bbaf71461021657806376c7a3c71461022957806382f652ad146102315780638656b65314610244578063867378c514610257578063872289ab1461025f57806389298012146102725780639381cd2b14610285578063992e2a921461028d5780639a86139b14610295578063a221ee49146102a4575b600080fd5b6101b361039c565b6040519081526020015b60405180910390f35b6101b36103b2565b6101b36101dc366004610e64565b6103c9565b6101b36101ef366004610e64565b6103de565b6101b3670de0b6b3a764000081565b6101b3610211366004610e86565b6103ea565b6101b3610224366004610eed565b6103ff565b6101b36104b7565b6101b361023f366004610eed565b6104cc565b6101b3610252366004610eed565b61058b565b6101b361062c565b6101b361026d366004610e64565b610643565b6101b3610280366004610eed565b61064f565b6101b36106ff565b6101b3610712565b6542524f4e5a4560d01b6101b3565b6101b36102b2366004610eb2565b610730565b6101b3600881565b6101b36102cd366004610e4b565b610795565b6102e56102e0366004610e64565b6107a0565b604080519283529015156020830152016101bd565b6101b3600281565b6101b3600181565b6101b3610318366004610eed565b6107b9565b6101b361083a565b6101b361084d565b6101b3600081565b6101b3610343366004610e4b565b61086c565b6101b3610356366004610e64565b610877565b6101b3610883565b6101b3610371366004610e64565b610896565b6101b3610384366004610e64565b6108a2565b6101b3610397366004610eed565b6108ae565b6103af670de0b6b3a76400006032610fb0565b81565b6103af6402540be400670de0b6b3a7640000610f9c565b60006103d58383610931565b90505b92915050565b60006103d58383610993565b60006103f7848484610a6f565b949350505050565b60008061040c8786610993565b9050600061041a8786610b5f565b905060006104288289610993565b9050600061043e670de0b6b3a764000085610993565b9050600061044c8383610bb1565b9050600061045a828e610cdd565b90506000610468828f610931565b90506000610487610481670de0b6b3a76400008a610931565b8b610cdd565b90506104a48261049f670de0b6b3a764000084610931565b610993565b9f9e505050505050505050505050505050565b6103af620f4240670de0b6b3a7640000610f9c565b6000806104d98786610993565b905060006104ef670de0b6b3a764000083610931565b905060006104fd8286610cdd565b905060006105178761049f670de0b6b3a764000085610931565b905060006105258c83610931565b90506000610533828e610993565b905060006105418288610bb1565b9050600061054f828e610cdd565b9050600061055d8e83610931565b90506105768161049f670de0b6b3a76400006000610931565b99505050505050505050509695505050505050565b6000806105988786610993565b905060006105b76105b1670de0b6b3a764000084610931565b85610cdd565b905060006105d6866105d1670de0b6b3a764000085610931565b610cdd565b905060006105e48b83610b5f565b905060006105f2828d610993565b905060006106008287610bb1565b9050600061060e828d610cdd565b905061061a818d610931565b9e9d5050505050505050505050505050565b6103af64e8d4a51000670de0b6b3a7640000610f9c565b60006103d58383610b5f565b60008061065c8786610993565b90506000610677856105d1670de0b6b3a76400006000610931565b905060006106858883610931565b90506000610693828a610993565b905060006106b2826106ad670de0b6b3a764000088610993565b610bb1565b905060006106c0828e610cdd565b905060006106ce8e83610931565b905060006106e7610481670de0b6b3a76400008a610931565b90506104a4826105d1670de0b6b3a764000084610931565b6103af670de0b6b3a76400006064610fb0565b6107256003670de0b6b3a7640000610f9c565b6103af906001610f84565b60008061073d8787610993565b9050600061074b8686610993565b905060006107598383610993565b9050600061077b670de0b6b3a764000061049f670de0b6b3a764000089610931565b90506107878282610cdd565b9a9950505050505050505050565b60006103d882610d72565b6000806107ad8484610d90565b915091505b9250929050565b6000806107c68786610993565b905060006107dc670de0b6b3a764000085610931565b90506107e88582610cdd565b905060006107fa8a61049f8c85610b5f565b905060006108088285610bb1565b9050600061081e670de0b6b3a764000083610931565b905061082a8a82610cdd565b9c9b505050505050505050505050565b6103af600a670de0b6b3a7640000610f9c565b6001610862670de0b6b3a76400006002610fb0565b6103af9190610fcf565b60006103d882610dc4565b60006103d58383610cdd565b6103af6002670de0b6b3a7640000610f9c565b60006103d58383610bb1565b60006103d58383610dd8565b6000806108bb8588610993565b905060006108c98786610931565b905060006108d78883610993565b905060006108e58285610bb1565b90506108f981670de0b6b3a7640000610931565b905061090d670de0b6b3a764000087610931565b945061092261091c8c83610cdd565b86610993565b9b9a5050505050505050505050565b60008060006109408585610d90565b91509150801561098b5760405162461bcd60e51b81526020600482015260116024820152704552525f5355425f554e444552464c4f5760781b60448201526064015b60405180910390fd5b509392505050565b6000816109d15760405162461bcd60e51b815260206004820152600c60248201526b4552525f4449565f5a45524f60a01b6044820152606401610982565b60006109e5670de0b6b3a764000085610fb0565b9050831580610a045750670de0b6b3a7640000610a028583610f9c565b145b610a205760405162461bcd60e51b815260040161098290610f30565b6000610a2d600285610f9c565b610a379083610f84565b905081811015610a595760405162461bcd60e51b815260040161098290610f30565b6000610a658583610f9c565b9695505050505050565b6000828180610a8687670de0b6b3a7640000610d90565b9092509050670de0b6b3a764000080600060015b888410610b50576000610ab5670de0b6b3a764000083610fb0565b9050600080610ad58a610ad085670de0b6b3a7640000610931565b610d90565b91509150610ae7876105d1848c610cdd565b9650610af38784610993565b965086610b0257505050610b50565b8715610b0c579315935b8015610b16579315935b8415610b2d57610b268688610931565b9550610b3a565b610b378688610b5f565b95505b5050508080610b4890610fe6565b915050610a9a565b50909998505050505050505050565b600080610b6c8385610f84565b9050838110156103d55760405162461bcd60e51b815260206004820152601060248201526f4552525f4144445f4f564552464c4f5760801b6044820152606401610982565b60006001831015610bfc5760405162461bcd60e51b81526020600482015260156024820152744552525f42504f575f424153455f544f4f5f4c4f5760581b6044820152606401610982565b6001610c11670de0b6b3a76400006002610fb0565b610c1b9190610fcf565b831115610c635760405162461bcd60e51b815260206004820152601660248201527508aa4a4be84a09eaebe8482a68abea89e9ebe90928e960531b6044820152606401610982565b6000610c6e83610d72565b90506000610c7c8483610931565b90506000610c9286610c8d85610dc4565b610dd8565b905081610ca35792506103d8915050565b6000610cc68784610cc16402540be400670de0b6b3a7640000610f9c565b610a6f565b9050610cd28282610cdd565b979650505050505050565b600080610cea8385610fb0565b9050831580610d01575082610cff8583610f9c565b145b610d1d5760405162461bcd60e51b815260040161098290610f5a565b6000610d326002670de0b6b3a7640000610f9c565b610d3c9083610f84565b905081811015610d5e5760405162461bcd60e51b815260040161098290610f5a565b6000610a65670de0b6b3a764000083610f9c565b6000670de0b6b3a7640000610d8683610dc4565b6103d89190610fb0565b600080828410610daf57610da48385610fcf565b6000915091506107b2565b610db98484610fcf565b6001915091506107b2565b60006103d8670de0b6b3a764000083610f9c565b600080610de6600284611001565b610df857670de0b6b3a7640000610dfa565b835b9050610e07600284610f9c565b92505b82156103d557610e1a8485610cdd565b9350610e27600284611001565b15610e3957610e368185610cdd565b90505b610e44600284610f9c565b9250610e0a565b600060208284031215610e5d57600080fd5b5035919050565b60008060408385031215610e7757600080fd5b50508035926020909101359150565b600080600060608486031215610e9b57600080fd5b505081359360208301359350604090920135919050565b600080600080600060a08688031215610eca57600080fd5b505083359560208501359550604085013594606081013594506080013592509050565b60008060008060008060c08789031215610f0657600080fd5b505084359660208601359650604086013595606081013595506080810135945060a0013592509050565b60208082526010908201526f11549497d1125597d25395115493905360821b604082015260600190565b60208082526010908201526f4552525f4d554c5f4f564552464c4f5760801b604082015260600190565b60008219821115610f9757610f97611015565b500190565b600082610fab57610fab61102b565b500490565b6000816000190483118215151615610fca57610fca611015565b500290565b600082821015610fe157610fe1611015565b500390565b6000600019821415610ffa57610ffa611015565b5060010190565b6000826110105761101061102b565b500690565b634e487b7160e01b600052601160045260246000fd5b634e487b7160e01b600052601260045260246000fdfea264697066735822122021fbd32f47060a27f00fcd64f0ac1733140c6811a6b064ef1feac816540f4abc64736f6c63430008060033",
  "immutableReferences": {},
  "source": "// This program is free software: you can redistribute it and/or modify\n// it under the terms of the GNU General Public License as published by\n// the Free Software Foundation, either version 3 of the License, or\n// (at your option) any later version.\n\n// This program is distributed in the hope that it will be useful,\n// but WITHOUT ANY WARRANTY; without even the implied warranty of\n// MERCHANTABILITY or FITNESS FOR A PARTICULAR PURPOSE.  See the\n// GNU General Public License for more details.\n\n// SPDX-License-Identifier: GNU\n\n// You should have received a copy of the GNU General Public License\n// along with this program.  If not, see <http://www.gnu.org/licenses/>.\n\npragma solidity 0.8.6;\n\nimport \"../BMath.sol\";\nimport \"../BNum.sol\";\n\n// Contract to wrap internal functions for testing\n\ncontract TMath is BMath {\n\n    function calc_btoi(uint a) external pure returns (uint) {\n        return btoi(a);\n    }\n\n    function calc_bfloor(uint a) external pure returns (uint) {\n        return bfloor(a);\n    }\n\n    function calc_badd(uint a, uint b) external pure returns (uint) {\n        return badd(a, b);\n    }\n\n    function calc_bsub(uint a, uint b) external pure returns (uint) {\n        return bsub(a, b);\n    }\n\n    function calc_bsubSign(uint a, uint b) external pure returns (uint, bool) {\n        return bsubSign(a, b);\n    }\n\n    function calc_bmul(uint a, uint b) external pure returns (uint) {\n        return bmul(a, b);\n    }\n\n    function calc_bdiv(uint a, uint b) external pure returns (uint) {\n        return bdiv(a, b);\n    }\n\n    function calc_bpowi(uint a, uint n) external pure returns (uint) {\n        return bpowi(a, n);\n    }\n\n    function calc_bpow(uint base, uint exp) external pure returns (uint) {\n        return bpow(base, exp);\n    }\n\n    function calc_bpowApprox(uint base, uint exp, uint precision) external pure returns (uint) {\n        return bpowApprox(base, exp, precision);\n    }\n}\n",
  "sourcePath": "/Users/david/Dev/cryptour/contracts/contracts/balancer/test/TMath.sol",
  "compiler": {
    "name": "solc",
    "version": "0.8.6+commit.11564f7e.Emscripten.clang"
  },
  "schemaVersion": "3.4.7",
  "updatedAt": "2022-04-25T14:12:43.880Z",
  "devdoc": {
    "kind": "dev",
    "methods": {},
    "version": 1
  },
  "userdoc": {
    "kind": "user",
    "methods": {},
    "version": 1
  }
}