{
  "contractName": "TourTokenFactory",
  "abi": [
    {
      "inputs": [
        {
          "internalType": "address",
          "name": "_template",
          "type": "address"
        },
        {
          "internalType": "address",
          "name": "_collector",
          "type": "address"
        }
      ],
      "stateMutability": "nonpayable",
      "type": "constructor"
    },
    {
      "anonymous": false,
      "inputs": [
        {
          "indexed": false,
          "internalType": "address",
          "name": "instance",
          "type": "address"
        }
      ],
      "name": "InstanceDeployed",
      "type": "event"
    },
    {
      "anonymous": false,
      "inputs": [
        {
          "indexed": true,
          "internalType": "address",
          "name": "newTokenAddress",
          "type": "address"
        },
        {
          "indexed": true,
          "internalType": "address",
          "name": "templateAddress",
          "type": "address"
        },
        {
          "indexed": true,
          "internalType": "string",
          "name": "tokenName",
          "type": "string"
        }
      ],
      "name": "TokenCreated",
      "type": "event"
    },
    {
      "anonymous": false,
      "inputs": [
        {
          "indexed": true,
          "internalType": "address",
          "name": "tokenAddress",
          "type": "address"
        },
        {
          "indexed": false,
          "internalType": "string",
          "name": "tokenName",
          "type": "string"
        },
        {
          "indexed": false,
          "internalType": "string",
          "name": "tokenSymbol",
          "type": "string"
        },
        {
          "indexed": false,
          "internalType": "uint256",
          "name": "tokenCap",
          "type": "uint256"
        },
        {
          "indexed": true,
          "internalType": "address",
          "name": "registeredBy",
          "type": "address"
        },
        {
          "indexed": true,
          "internalType": "string",
          "name": "blob",
          "type": "string"
        }
      ],
      "name": "TokenRegistered",
      "type": "event"
    },
    {
      "inputs": [
        {
          "internalType": "string",
          "name": "blob",
          "type": "string"
        },
        {
          "internalType": "string",
          "name": "name",
          "type": "string"
        },
        {
          "internalType": "string",
          "name": "symbol",
          "type": "string"
        },
        {
          "internalType": "uint256",
          "name": "cap",
          "type": "uint256"
        }
      ],
      "name": "createToken",
      "outputs": [
        {
          "internalType": "address",
          "name": "token",
          "type": "address"
        }
      ],
      "stateMutability": "nonpayable",
      "type": "function"
    },
    {
      "inputs": [],
      "name": "getCurrentTokenCount",
      "outputs": [
        {
          "internalType": "uint256",
          "name": "",
          "type": "uint256"
        }
      ],
      "stateMutability": "view",
      "type": "function",
      "constant": true
    },
    {
      "inputs": [],
      "name": "getTokenTemplate",
      "outputs": [
        {
          "internalType": "address",
          "name": "",
          "type": "address"
        }
      ],
      "stateMutability": "view",
      "type": "function",
      "constant": true
    }
  ],
  "bytecode": "0x6080604052600160025534801561001557600080fd5b5060405161080d38038061080d83398101604081905261003491610121565b6001600160a01b0382161580159061005457506001600160a01b03811615155b6100d45760405162461bcd60e51b815260206004820152604160248201527f5454466163746f72793a20496e76616c69642074656d706c61746520746f6b6560448201527f6e2f636f6d6d756e6974792066656520636f6c6c6563746f72206164647265736064820152607360f81b608482015260a40160405180910390fd5b600080546001600160a01b039384166001600160a01b03199182161790915560018054929093169116179055610154565b80516001600160a01b038116811461011c57600080fd5b919050565b6000806040838503121561013457600080fd5b61013d83610105565b915061014b60208401610105565b90509250929050565b6106aa806101636000396000f3fe608060405234801561001057600080fd5b50600436106100415760003560e01c8063490aad7614610046578063c6cf868a14610069578063efbe8fd11461007a575b600080fd5b6000546001600160a01b03165b6040516100609190610556565b60405180910390f35b600254604051908152602001610060565b61005361008836600461047f565b6000816100e75760405162461bcd60e51b815260206004820152602260248201527f5454466163746f72793a207a65726f20636170206973206e6f7420616c6c6f77604482015261195960f21b60648201526084015b60405180910390fd5b6000546100fc906001600160a01b0316610340565b90506001600160a01b0381166101775760405162461bcd60e51b815260206004820152603a60248201527f5454466163746f72793a204661696c656420746f20706572666f726d206d696e60448201527934b6b0b6103232b83637bc9037b31030903732bb903a37b5b2b760311b60648201526084016100de565b60015460405163120e1a5f60e31b815282916001600160a01b0380841692639070d2f8926101b5928a928a9233928b928f929091169060040161056a565b602060405180830381600087803b1580156101cf57600080fd5b505af11580156101e3573d6000803e3d6000fd5b505050506040513d601f19601f820116820180604052508101906102079190610456565b61026a5760405162461bcd60e51b815260206004820152602e60248201527f5454466163746f72793a20556e61626c6520746f20696e697469616c697a652060448201526d746f6b656e20696e7374616e636560901b60648201526084016100de565b84604051610278919061053a565b6040519081900381206000805491926001600160a01b03928316928616917fb51c8cbe199ffe8b0d1d39b62d473569750653cb18b165f77ae423b3900180ad91a4856040516102c7919061053a565b6040518091039020336001600160a01b0316836001600160a01b03167f437e99a69c634128e67a85656b80d03b028ba37525b15070606e5c28e846984a888888604051610316939291906105d2565b60405180910390a46001600260008282546103319190610608565b90915550919695505050505050565b6000808260601b9050604051733d602d80600a3d3981f3363d3d373d3d3d363d7360601b81528160148201526e5af43d82803e903d91602b57fd5bf360881b60288201526037816000f09250507f117c72e6c25f0a072e36e148df71468ce2f3dbe7defec5b2c257a6e3eb65278c826040516103bc9190610556565b60405180910390a150919050565b600082601f8301126103db57600080fd5b81356001600160401b03808211156103f5576103f561065e565b604051601f8301601f19908116603f0116810190828211818310171561041d5761041d61065e565b8160405283815286602085880101111561043657600080fd5b836020870160208301376000602085830101528094505050505092915050565b60006020828403121561046857600080fd5b8151801515811461047857600080fd5b9392505050565b6000806000806080858703121561049557600080fd5b84356001600160401b03808211156104ac57600080fd5b6104b8888389016103ca565b955060208701359150808211156104ce57600080fd5b6104da888389016103ca565b945060408701359150808211156104f057600080fd5b506104fd878288016103ca565b949793965093946060013593505050565b6000815180845261052681602086016020860161062e565b601f01601f19169290920160200192915050565b6000825161054c81846020870161062e565b9190910192915050565b6001600160a01b0391909116815260200190565b60c08152600061057d60c083018961050e565b828103602084015261058f818961050e565b6001600160a01b0388811660408601526060850188905284820360808601529091506105bb828761050e565b925080851660a08501525050979650505050505050565b6060815260006105e5606083018661050e565b82810360208401526105f7818661050e565b915050826040830152949350505050565b6000821982111561062957634e487b7160e01b600052601160045260246000fd5b500190565b60005b83811015610649578181015183820152602001610631565b83811115610658576000848401525b50505050565b634e487b7160e01b600052604160045260246000fdfea26469706673582212209e3df398194cb3cf129ccc9f9f7c3f46fe2438f231e1cd8f20416c968ec07e7a64736f6c63430008060033",
  "immutableReferences": {},
  "source": "pragma solidity 0.8.6;\n// Copyright BigchainDB GmbH and Ocean Protocol contributors\n// SPDX-License-Identifier: (Apache-2.0 AND CC-BY-4.0)\n// Code is Apache-2.0 and docs are CC-BY-4.0\n\nimport './ocean_utils/Deployer.sol';\nimport './ocean_interfaces/ITourTokenAdditional.sol';\n\n/**\n * @title TTFactory contract\n * @author Ocean Protocol Team\n *\n * @dev Implementation of Ocean DataTokens Factory\n *\n *      TTFactory deploys DataToken proxy contracts.\n *      New DataToken proxy contracts are links to the template contract's bytecode.\n *      Proxy contract functionality is based on Ocean Protocol custom implementation of ERC1167 standard.\n */\ncontract TourTokenFactory is Deployer {\n    address private tokenTemplate;\n    address private communityFeeCollector;\n    uint256 private currentTokenCount = 1;\n\n    event TokenCreated(\n        address indexed newTokenAddress,\n        address indexed templateAddress,\n        string indexed tokenName\n    );\n\n    event TokenRegistered(\n        address indexed tokenAddress,\n        string tokenName,\n        string tokenSymbol,\n        uint256 tokenCap,\n        address indexed registeredBy,\n        string indexed blob\n    );\n\n    /**\n     * @dev constructor\n     *      Called on contract deployment. Could not be called with zero address parameters.\n     * @param _template refers to the address of a deployed DataToken contract.\n     * @param _collector refers to the community fee collector address\n     */\n    constructor(\n        address _template,\n        address _collector\n    ) {\n        require(\n            _template != address(0) &&\n            _collector != address(0),\n            'TTFactory: Invalid template token/community fee collector address'\n        );\n        tokenTemplate = _template;\n        communityFeeCollector = _collector;\n    }\n\n    /**\n     * @dev Deploys new DataToken proxy contract.\n     *      Template contract address could not be a zero address.\n     * @param blob any string that hold data/metadata for the new token\n     * @param name token name\n     * @param symbol token symbol\n     * @param cap the maximum total supply\n     * @return token address of a new proxy DataToken contract\n     */\n    function createToken(\n        string memory blob,\n        string memory name,\n        string memory symbol,\n        uint256 cap\n    )\n        public\n        returns (address token)\n    {\n        require(\n            cap != 0,\n            'TTFactory: zero cap is not allowed'\n        );\n\n        token = deploy(tokenTemplate);\n\n        require(\n            token != address(0),\n            'TTFactory: Failed to perform minimal deploy of a new token'\n        );\n        ITourTokenAdditional tokenInstance = ITourTokenAdditional(token);\n        require(\n            tokenInstance.initialize(\n                name,\n                symbol,\n                msg.sender,\n                cap,\n                blob,\n                communityFeeCollector\n            ),\n            'TTFactory: Unable to initialize token instance'\n        );\n        emit TokenCreated(token, tokenTemplate, name);\n        emit TokenRegistered(\n            token,\n            name,\n            symbol,\n            cap,\n            msg.sender,\n            blob\n        );\n        currentTokenCount += 1;\n    }\n\n    /**\n     * @dev get the current token count.\n     * @return the current token count\n     */\n    function getCurrentTokenCount() external view returns (uint256) {\n        return currentTokenCount;\n    }\n\n    /**\n     * @dev get the token template address\n     * @return the template address\n     */\n    function getTokenTemplate() external view returns (address) {\n        return tokenTemplate;\n    }\n}\n",
  "sourcePath": "/Users/david/Dev/cryptour/contracts/contracts/TourTokenFactory.sol",
  "compiler": {
    "name": "solc",
    "version": "0.8.6+commit.11564f7e.Emscripten.clang"
  },
  "schemaVersion": "3.4.7",
  "updatedAt": "2022-05-19T09:23:49.872Z",
  "networkType": "ethereum",
  "devdoc": {
    "author": "Ocean Protocol Team",
    "details": "Implementation of Ocean DataTokens Factory      TTFactory deploys DataToken proxy contracts.      New DataToken proxy contracts are links to the template contract's bytecode.      Proxy contract functionality is based on Ocean Protocol custom implementation of ERC1167 standard.",
    "kind": "dev",
    "methods": {
      "constructor": {
        "details": "constructor      Called on contract deployment. Could not be called with zero address parameters.",
        "params": {
          "_collector": "refers to the community fee collector address",
          "_template": "refers to the address of a deployed DataToken contract."
        }
      },
      "createToken(string,string,string,uint256)": {
        "details": "Deploys new DataToken proxy contract.      Template contract address could not be a zero address.",
        "params": {
          "blob": "any string that hold data/metadata for the new token",
          "cap": "the maximum total supply",
          "name": "token name",
          "symbol": "token symbol"
        },
        "returns": {
          "token": "address of a new proxy DataToken contract"
        }
      },
      "getCurrentTokenCount()": {
        "details": "get the current token count.",
        "returns": {
          "_0": "the current token count"
        }
      },
      "getTokenTemplate()": {
        "details": "get the token template address",
        "returns": {
          "_0": "the template address"
        }
      }
    },
    "title": "TTFactory contract",
    "version": 1
  },
  "userdoc": {
    "kind": "user",
    "methods": {},
    "version": 1
  }
}